{
  "address": "0xDc64a140Aa3E981100a9becA4E685f962f0cF6C9",
  "abi": [
    {
      "inputs": [
        {
          "internalType": "address",
          "name": "_feeAccount",
          "type": "address"
        },
        {
          "internalType": "uint256",
          "name": "_feePercent",
          "type": "uint256"
        }
      ],
      "stateMutability": "nonpayable",
      "type": "constructor"
    },
    {
      "inputs": [],
      "name": "Exchange__InvalidToken",
      "type": "error"
    },
    {
      "inputs": [],
      "name": "Exchange__LowBalance",
      "type": "error"
    },
    {
      "inputs": [],
      "name": "Exchange__LowDaiBalance",
      "type": "error"
    },
    {
      "inputs": [],
      "name": "Exchange__TokenIsNotDai",
      "type": "error"
    },
    {
      "inputs": [],
      "name": "Exchange__TransferFailed",
      "type": "error"
    },
    {
      "anonymous": false,
      "inputs": [
        {
          "indexed": true,
          "internalType": "uint256",
          "name": "tradeId",
          "type": "uint256"
        },
        {
          "indexed": true,
          "internalType": "address",
          "name": "trader",
          "type": "address"
        },
        {
          "indexed": false,
          "internalType": "enum Exchange.Status",
          "name": "status",
          "type": "uint8"
        },
        {
          "indexed": true,
          "internalType": "bytes32",
          "name": "ticker",
          "type": "bytes32"
        },
        {
          "indexed": false,
          "internalType": "uint256",
          "name": "amount",
          "type": "uint256"
        },
        {
          "indexed": false,
          "internalType": "uint256",
          "name": "filled",
          "type": "uint256"
        },
        {
          "indexed": false,
          "internalType": "uint256",
          "name": "price",
          "type": "uint256"
        },
        {
          "indexed": false,
          "internalType": "uint256",
          "name": "date",
          "type": "uint256"
        }
      ],
      "name": "Cancel",
      "type": "event"
    },
    {
      "anonymous": false,
      "inputs": [
        {
          "indexed": true,
          "internalType": "bytes32",
          "name": "ticker",
          "type": "bytes32"
        },
        {
          "indexed": true,
          "internalType": "address",
          "name": "user",
          "type": "address"
        },
        {
          "indexed": false,
          "internalType": "uint256",
          "name": "amount",
          "type": "uint256"
        },
        {
          "indexed": false,
          "internalType": "uint256",
          "name": "balance",
          "type": "uint256"
        }
      ],
      "name": "Deposit",
      "type": "event"
    },
    {
      "anonymous": false,
      "inputs": [
        {
          "indexed": false,
          "internalType": "uint256",
          "name": "tradeId",
          "type": "uint256"
        },
        {
          "indexed": false,
          "internalType": "uint256",
          "name": "orderId",
          "type": "uint256"
        },
        {
          "indexed": true,
          "internalType": "bytes32",
          "name": "ticker",
          "type": "bytes32"
        },
        {
          "indexed": true,
          "internalType": "address",
          "name": "trader1",
          "type": "address"
        },
        {
          "indexed": true,
          "internalType": "address",
          "name": "trader2",
          "type": "address"
        },
        {
          "indexed": false,
          "internalType": "uint256",
          "name": "amount",
          "type": "uint256"
        },
        {
          "indexed": false,
          "internalType": "uint256",
          "name": "price",
          "type": "uint256"
        },
        {
          "indexed": false,
          "internalType": "uint256",
          "name": "date",
          "type": "uint256"
        }
      ],
      "name": "NewTrade",
      "type": "event"
    },
    {
      "anonymous": false,
      "inputs": [
        {
          "indexed": true,
          "internalType": "address",
          "name": "previousOwner",
          "type": "address"
        },
        {
          "indexed": true,
          "internalType": "address",
          "name": "newOwner",
          "type": "address"
        }
      ],
      "name": "OwnershipTransferred",
      "type": "event"
    },
    {
      "anonymous": false,
      "inputs": [
        {
          "indexed": true,
          "internalType": "bytes32",
          "name": "ticker",
          "type": "bytes32"
        },
        {
          "indexed": true,
          "internalType": "address",
          "name": "user",
          "type": "address"
        },
        {
          "indexed": false,
          "internalType": "uint256",
          "name": "amount",
          "type": "uint256"
        },
        {
          "indexed": false,
          "internalType": "uint256",
          "name": "balance",
          "type": "uint256"
        }
      ],
      "name": "Withdraw",
      "type": "event"
    },
    {
      "inputs": [
        {
          "internalType": "bytes32",
          "name": "_ticker",
          "type": "bytes32"
        },
        {
          "internalType": "address",
          "name": "_tickerAddress",
          "type": "address"
        }
      ],
      "name": "addToken",
      "outputs": [],
      "stateMutability": "nonpayable",
      "type": "function"
    },
    {
      "inputs": [
        {
          "internalType": "bytes32",
          "name": "_ticker",
          "type": "bytes32"
        },
        {
          "internalType": "uint256",
          "name": "_id",
          "type": "uint256"
        }
      ],
      "name": "cancelOrder",
      "outputs": [],
      "stateMutability": "nonpayable",
      "type": "function"
    },
    {
      "inputs": [
        {
          "internalType": "bytes32",
          "name": "_ticker",
          "type": "bytes32"
        },
        {
          "internalType": "uint256",
          "name": "_amount",
          "type": "uint256"
        },
        {
          "internalType": "uint256",
          "name": "_price",
          "type": "uint256"
        },
        {
          "internalType": "enum Exchange.Status",
          "name": "status",
          "type": "uint8"
        }
      ],
      "name": "createLimitOrder",
      "outputs": [],
      "stateMutability": "nonpayable",
      "type": "function"
    },
    {
      "inputs": [
        {
          "internalType": "bytes32",
          "name": "_ticker",
          "type": "bytes32"
        },
        {
          "internalType": "uint256",
          "name": "_amount",
          "type": "uint256"
        },
        {
          "internalType": "enum Exchange.Status",
          "name": "status",
          "type": "uint8"
        }
      ],
      "name": "createMarketOrder",
      "outputs": [],
      "stateMutability": "nonpayable",
      "type": "function"
    },
    {
      "inputs": [
        {
          "internalType": "bytes32",
          "name": "_ticker",
          "type": "bytes32"
        },
        {
          "internalType": "uint256",
          "name": "_amount",
          "type": "uint256"
        }
      ],
      "name": "depositToken",
      "outputs": [],
      "stateMutability": "nonpayable",
      "type": "function"
    },
    {
      "inputs": [
        {
          "internalType": "bytes32",
          "name": "_ticker",
          "type": "bytes32"
        }
      ],
      "name": "getBalance",
      "outputs": [
        {
          "internalType": "uint256",
          "name": "",
          "type": "uint256"
        }
      ],
      "stateMutability": "view",
      "type": "function"
    },
    {
      "inputs": [
        {
          "internalType": "bytes32",
          "name": "_ticker",
          "type": "bytes32"
        },
        {
          "internalType": "enum Exchange.Status",
          "name": "status",
          "type": "uint8"
        }
      ],
      "name": "getOrders",
      "outputs": [
        {
          "components": [
            {
              "internalType": "uint256",
              "name": "id",
              "type": "uint256"
            },
            {
              "internalType": "address",
              "name": "trader",
              "type": "address"
            },
            {
              "internalType": "enum Exchange.Status",
              "name": "status",
              "type": "uint8"
            },
            {
              "internalType": "bytes32",
              "name": "ticker",
              "type": "bytes32"
            },
            {
              "internalType": "uint256",
              "name": "amount",
              "type": "uint256"
            },
            {
              "internalType": "uint256",
              "name": "filled",
              "type": "uint256"
            },
            {
              "internalType": "uint256",
              "name": "price",
              "type": "uint256"
            },
            {
              "internalType": "uint256",
              "name": "date",
              "type": "uint256"
            }
          ],
          "internalType": "struct Exchange.Order[]",
          "name": "",
          "type": "tuple[]"
        }
      ],
      "stateMutability": "view",
      "type": "function"
    },
    {
      "inputs": [],
      "name": "getTokens",
      "outputs": [
        {
          "components": [
            {
              "internalType": "bytes32",
              "name": "ticker",
              "type": "bytes32"
            },
            {
              "internalType": "address",
              "name": "tickerAddress",
              "type": "address"
            }
          ],
          "internalType": "struct Exchange.Token[]",
          "name": "",
          "type": "tuple[]"
        }
      ],
      "stateMutability": "view",
      "type": "function"
    },
    {
      "inputs": [],
      "name": "i_feeAccount",
      "outputs": [
        {
          "internalType": "address",
          "name": "",
          "type": "address"
        }
      ],
      "stateMutability": "view",
      "type": "function"
    },
    {
      "inputs": [],
      "name": "i_feePercent",
      "outputs": [
        {
          "internalType": "uint256",
          "name": "",
          "type": "uint256"
        }
      ],
      "stateMutability": "view",
      "type": "function"
    },
    {
      "inputs": [],
      "name": "owner",
      "outputs": [
        {
          "internalType": "address",
          "name": "",
          "type": "address"
        }
      ],
      "stateMutability": "view",
      "type": "function"
    },
    {
      "inputs": [],
      "name": "renounceOwnership",
      "outputs": [],
      "stateMutability": "nonpayable",
      "type": "function"
    },
    {
      "inputs": [
        {
          "internalType": "bytes32",
          "name": "",
          "type": "bytes32"
        },
        {
          "internalType": "uint256",
          "name": "",
          "type": "uint256"
        }
      ],
      "name": "s_orderCancelled",
      "outputs": [
        {
          "internalType": "bool",
          "name": "",
          "type": "bool"
        }
      ],
      "stateMutability": "view",
      "type": "function"
    },
    {
      "inputs": [
        {
          "internalType": "address",
          "name": "newOwner",
          "type": "address"
        }
      ],
      "name": "transferOwnership",
      "outputs": [],
      "stateMutability": "nonpayable",
      "type": "function"
    },
    {
      "inputs": [
        {
          "internalType": "bytes32",
          "name": "_ticker",
          "type": "bytes32"
        },
        {
          "internalType": "uint256",
          "name": "_amount",
          "type": "uint256"
        }
      ],
      "name": "withdrawToken",
      "outputs": [],
      "stateMutability": "nonpayable",
      "type": "function"
    }
  ],
  "transactionHash": "0xa8718459c11a0dea7b91ee65a0f58acd3599084e87b0ccec13e1b0e9a62a9ddf",
  "args": [
    "0x70997970C51812dc3A010C7d01b50e0d17dc79C8",
    10
  ],
  "numDeployments": 1,
  "solcInputHash": "a117c613ba803b6ca7994aa3e6c4f04f",
  "bytecode": "0x60e06040523480156200001157600080fd5b5060405162001ec438038062001ec48339810160408190526200003491620000aa565b6200003f336200005a565b6001600160a01b0390911660a05260c05233608052620000e6565b600080546001600160a01b038381166001600160a01b0319831681178455604051919092169283917f8be0079c531659141344cd1fd0a4f28419497f9722a3daafe3b4186f6b6457e09190a35050565b60008060408385031215620000be57600080fd5b82516001600160a01b0381168114620000d657600080fd5b6020939093015192949293505050565b60805160a05160c051611d9d620001276000396000818160ff015261072c01526000818161025201528181610a270152610ca7015260005050611d9d6000f3fe608060405234801561001057600080fd5b50600436106100f55760003560e01c80638e73946111610097578063cb8ea28111610066578063cb8ea2811461024d578063d116c14914610274578063d9c0c95014610287578063f2fde38b1461029a57600080fd5b80638e739461146101e75780639776aacf14610212578063aa6ca80814610225578063b34b7c7f1461023a57600080fd5b8063715018a6116100d3578063715018a6146101925780637d6b49821461019c5780637f2c6246146101af5780638da5cb5b146101c257600080fd5b80631771bd57146100fa57806346e9658b146101345780634cdd1a1c14610154575b600080fd5b6101217f000000000000000000000000000000000000000000000000000000000000000081565b6040519081526020015b60405180910390f35b6101476101423660046119d5565b6102ad565b60405161012b9190611a39565b610182610162366004611ad8565b600760209081526000928352604080842090915290825290205460ff1681565b604051901515815260200161012b565b61019a6103c4565b005b61019a6101aa366004611ad8565b6103d8565b61019a6101bd366004611afa565b61057b565b6000546001600160a01b03165b6040516001600160a01b03909116815260200161012b565b6101216101f5366004611b2f565b336000908152600860209081526040808320938352929052205490565b61019a610220366004611b5f565b610f05565b61022d610f86565b60405161012b9190611b82565b61019a610248366004611ad8565b6110b9565b6101cf7f000000000000000000000000000000000000000000000000000000000000000081565b61019a610282366004611ad8565b61115e565b61019a610295366004611bcd565b6112c2565b61019a6102a8366004611c0c565b611899565b60008281526006602052604081206060918360018111156102d0576102d0611a01565b8152602001908152602001600020805480602002602001604051908101604052809291908181526020016000905b828210156103b7576000848152602090819020604080516101008101825260078602909201805483526001808201546001600160a01b038116958501959095529293909291840191600160a01b90910460ff169081111561036157610361611a01565b600181111561037257610372611a01565b815260200160028201548152602001600382015481526020016004820154815260200160058201548152602001600682015481525050815260200190600101906102fe565b5050505090505b92915050565b6103cc611917565b6103d66000611971565b565b60008281526004602052604090206001015482906001600160a01b03166104125760405163a0089a9760e01b815260040160405180910390fd5b33600090815260086020908152604080832086845290915290205482111561044d57604051633bda205760e11b815260040160405180910390fd5b33600090815260086020908152604080832086845290915281208054849290610477908490611c44565b9091555050600083815260046020819052604080832060010154905163a9059cbb60e01b81523392810192909252602482018590526001600160a01b03169063a9059cbb906044016020604051808303816000875af11580156104de573d6000803e3d6000fd5b505050506040513d601f19601f820116820180604052508101906105029190611c57565b905080610522576040516347caa76b60e01b815260040160405180910390fd5b3360008181526008602090815260408083208884528252918290205482518781529182015286917fb66d4229fe9107b32cd9afe73d39ebf3d84f2f8c9dda72fedf450fbd02f7018191015b60405180910390a350505050565b60008381526004602052604090206001015483906001600160a01b03166105b55760405163a0089a9760e01b815260040160405180910390fd5b60018260018111156105c9576105c9611a01565b036106095733600090815260086020908152604080832087845290915290205483111561060957604051633bda205760e11b815260040160405180910390fd5b6000848152600660205260408120818085600181111561062b5761062b611a01565b1461063757600061063a565b60015b600181111561064b5761064b611a01565b815260200190815260200160002090506000808590505b8254821080156106725750600081115b15610d2157600083838154811061068b5761068b611c79565b9060005260206000209060070201600401548484815481106106af576106af611c79565b9060005260206000209060070201600301546106cb9190611c44565b905060008183116106dc57826106de565b815b90506106ea8184611c44565b9250808585815481106106ff576106ff611c79565b9060005260206000209060070201600401600082825461071f9190611c8f565b92505081905550600060647f000000000000000000000000000000000000000000000000000000000000000087878154811061075d5761075d611c79565b9060005260206000209060070201600401546107799190611ca2565b6107839190611cb9565b9050336001600160a01b03168686815481106107a1576107a1611c79565b906000526020600020906007020160010160009054906101000a90046001600160a01b03166001600160a01b03168b7fdb0c486e680ba8026643e6a85f8d157b5e7bcd4b32b54d564542570a9eb204166002548a8a8154811061080657610806611c79565b906000526020600020906007020160000154878c8c8154811061082b5761082b611c79565b6000918252602091829020600560079092020101546040805195865291850193909352830152606082015242608082015260a00160405180910390a4600188600181111561087b5761087b611a01565b03610a76573360009081526008602090815260408083208d8452909152812080548492906108aa908490611c44565b925050819055508585815481106108c3576108c3611c79565b906000526020600020906007020160050154826108e09190611ca2565b3360009081526008602090815260408083206244414960e81b845290915281208054909190610910908490611c8f565b9091555061092090508183611c44565b6008600088888154811061093657610936611c79565b60009182526020808320600160079093020191909101546001600160a01b0316835282810193909352604091820181208e82529092528120805490919061097e908490611c8f565b9250508190555085858154811061099757610997611c79565b906000526020600020906007020160050154826109b49190611ca2565b600860008888815481106109ca576109ca611c79565b60009182526020808320600160079093020191909101546001600160a01b0316835282810193909352604091820181206244414960e81b825290925281208054909190610a18908490611c44565b90915550506001600160a01b037f00000000000000000000000000000000000000000000000000000000000000001660009081526008602090815260408083208d845290915281208054839290610a70908490611c8f565b90915550505b6000886001811115610a8a57610a8a611a01565b03610cf657858581548110610aa157610aa1611c79565b90600052602060002090600702016005015482610abe9190611ca2565b3360009081526008602090815260408083206244414960e81b84529091529020541015610afe5760405163403d96fd60e01b815260040160405180910390fd5b610b088183611c44565b3360009081526008602090815260408083208e845290915281208054909190610b32908490611c8f565b92505081905550858581548110610b4b57610b4b611c79565b90600052602060002090600702016005015482610b689190611ca2565b3360009081526008602090815260408083206244414960e81b845290915281208054909190610b98908490611c44565b925050819055508160086000888881548110610bb657610bb6611c79565b60009182526020808320600160079093020191909101546001600160a01b0316835282810193909352604091820181208e825290925281208054909190610bfe908490611c44565b92505081905550858581548110610c1757610c17611c79565b90600052602060002090600702016005015482610c349190611ca2565b60086000888881548110610c4a57610c4a611c79565b60009182526020808320600160079093020191909101546001600160a01b0316835282810193909352604091820181206244414960e81b825290925281208054909190610c98908490611c8f565b90915550506001600160a01b037f00000000000000000000000000000000000000000000000000000000000000001660009081526008602090815260408083208d845290915281208054839290610cf0908490611c8f565b90915550505b60038054906000610d0683611cdb565b91905055508480610d1690611cdb565b955050505050610662565b600091505b825482108015610d7b5750828281548110610d4357610d43611c79565b906000526020600020906007020160030154838381548110610d6757610d67611c79565b906000526020600020906007020160040154145b15610efc57815b8354610d9090600190611c44565b811015610e8d5783610da3826001611c8f565b81548110610db357610db3611c79565b9060005260206000209060070201848281548110610dd357610dd3611c79565b6000918252602090912082546007909202019081556001808301805482840180546001600160a01b031981166001600160a01b039093169283178255925460ff600160a01b91829004169491936001600160a81b03191690921791908490811115610e4057610e40611a01565b021790555060028201548160020155600382015481600301556004820154816004015560058201548160050155600682015481600601559050508080610e8590611cdb565b915050610d82565b5082805480610e9e57610e9e611cf4565b6000828152602081206007600019909301928302018181556001810180546001600160a81b03191690556002810182905560038101829055600481018290556005810182905560060155905581610ef481611cdb565b925050610d26565b50505050505050565b610f0d611917565b6040805180820182528381526001600160a01b039283166020808301918252600086815260049091529283209151825551600191820180546001600160a01b0319169190941617909255815480830183559190527fb10e2d527612073b26eecdfd717e6a320cf44b4afac2b0732d9fcbe2b7fa0cf60155565b60015460609060009067ffffffffffffffff811115610fa757610fa7611d0a565b604051908082528060200260200182016040528015610fec57816020015b6040805180820190915260008082526020820152815260200190600190039081610fc55790505b50905060005b6001548110156110b3576040518060400160405280600460006001858154811061101e5761101e611c79565b90600052602060002001548152602001908152602001600020600001548152602001600460006001858154811061105757611057611c79565b600091825260208083209091015483528201929092526040019020600101546001600160a01b03169052825183908390811061109557611095611c79565b602002602001018190525080806110ab90611cdb565b915050610ff2565b50919050565b60008281526007602090815260408083208484528252808320805460ff191660019081179091558584526005808452828520868652808552838620600281015481549482015460038301548a8a529390975292015493519195339593947f583b3a2f626bac4fb20dbb329800b0303cde26c0454a82cf1c79cb039c6245189461115294600160a01b90910460ff16939291904290611d20565b60405180910390a45050565b60008281526004602052604090206001015482906001600160a01b03166111985760405163a0089a9760e01b815260040160405180910390fd5b60008381526004602081905260408083206001015490516323b872dd60e01b81523392810192909252306024830152604482018590526001600160a01b0316906323b872dd906064016020604051808303816000875af1158015611200573d6000803e3d6000fd5b505050506040513d601f19601f820116820180604052508101906112249190611c57565b905080611244576040516347caa76b60e01b815260040160405180910390fd5b3360009081526008602090815260408083208784529091528120805485929061126e908490611c8f565b90915550503360008181526008602090815260408083208884528252918290205482518781529182015286917f6849bd31a1772b1b6992f1f328cce6888b435faff25d13805baee12a8a944bbe910161056d565b836244414960e81b81036112e95760405163781d68af60e11b815260040160405180910390fd5b60008581526004602052604090206001015485906001600160a01b03166113235760405163a0089a9760e01b815260040160405180910390fd5b600183600181111561133757611337611a01565b0361137b57336000908152600860209081526040808320898452909152902054851061137657604051633bda205760e11b815260040160405180910390fd5b6113bc565b3360009081526008602090815260408083206244414960e81b84529091529020548511156113bc5760405163403d96fd60e01b815260040160405180910390fd5b6000868152600660205260408120818560018111156113dd576113dd611a01565b81526020019081526020016000209050806040518061010001604052806002548152602001336001600160a01b0316815260200186600181111561142357611423611a01565b815260208082018b905260408083018b9052600060608401819052608084018b90524260a0909401939093528454600180820187559584529282902084516007909402019283559083015182850180546001600160a01b031981166001600160a01b03909316928317825592850151949593949390926001600160a81b03191690911790600160a01b9084908111156114be576114be611a01565b0217905550606082015160028201556080820151600382015560a0820151600482015560c0820151600582015560e0909101516006909101558054600090611507576000611515565b815461151590600190611c44565b90505b801561187a57600085600181111561153257611532611a01565b148015611590575081818154811061154c5761154c611c79565b9060005260206000209060070201600501548260018361156c9190611c44565b8154811061157c5761157c611c79565b906000526020600020906007020160050154115b61187a5760018560018111156115a8576115a8611a01565b14801561160657508181815481106115c2576115c2611c79565b906000526020600020906007020160050154826001836115e29190611c44565b815481106115f2576115f2611c79565b906000526020600020906007020160050154105b61187a57600082611618600184611c44565b8154811061162857611628611c79565b60009182526020918290206040805161010081018252600793909302909101805483526001808201546001600160a01b038116958501959095529293909291840191600160a01b90910460ff169081111561168557611685611a01565b600181111561169657611696611a01565b81526020016002820154815260200160038201548152602001600482015481526020016005820154815260200160068201548152505090508282815481106116e0576116e0611c79565b9060005260206000209060070201836001846116fc9190611c44565b8154811061170c5761170c611c79565b6000918252602090912082546007909202019081556001808301805482840180546001600160a01b031981166001600160a01b039093169283178255925460ff600160a01b91829004169491936001600160a81b0319169092179190849081111561177957611779611a01565b02179055506002820154816002015560038201548160030155600482015481600401556005820154816005015560068201548160060155905050808383815481106117c6576117c6611c79565b6000918252602091829020835160079092020190815590820151600180830180546001600160a01b039093166001600160a01b031984168117825560408601519391926001600160a81b03199092161790600160a01b90849081111561182e5761182e611a01565b0217905550606082015160028201556080820151600382015560a0820151600482015560c0820151600582015560e0909101516006909101558161187181611d50565b92505050611518565b6002805490600061188a83611cdb565b91905055505050505050505050565b6118a1611917565b6001600160a01b03811661190b5760405162461bcd60e51b815260206004820152602660248201527f4f776e61626c653a206e6577206f776e657220697320746865207a65726f206160448201526564647265737360d01b60648201526084015b60405180910390fd5b61191481611971565b50565b6000546001600160a01b031633146103d65760405162461bcd60e51b815260206004820181905260248201527f4f776e61626c653a2063616c6c6572206973206e6f7420746865206f776e65726044820152606401611902565b600080546001600160a01b038381166001600160a01b0319831681178455604051919092169283917f8be0079c531659141344cd1fd0a4f28419497f9722a3daafe3b4186f6b6457e09190a35050565b8035600281106119d057600080fd5b919050565b600080604083850312156119e857600080fd5b823591506119f8602084016119c1565b90509250929050565b634e487b7160e01b600052602160045260246000fd5b60028110611a3557634e487b7160e01b600052602160045260246000fd5b9052565b602080825282518282018190526000919060409081850190868401855b82811015611acb57815180518552868101516001600160a01b03168786015285810151611a8587870182611a17565b50606081810151908601526080808201519086015260a0808201519086015260c0808201519086015260e090810151908501526101009093019290850190600101611a56565b5091979650505050505050565b60008060408385031215611aeb57600080fd5b50508035926020909101359150565b600080600060608486031215611b0f57600080fd5b8335925060208401359150611b26604085016119c1565b90509250925092565b600060208284031215611b4157600080fd5b5035919050565b80356001600160a01b03811681146119d057600080fd5b60008060408385031215611b7257600080fd5b823591506119f860208401611b48565b602080825282518282018190526000919060409081850190868401855b82811015611acb578151805185528601516001600160a01b0316868501529284019290850190600101611b9f565b60008060008060808587031215611be357600080fd5b843593506020850135925060408501359150611c01606086016119c1565b905092959194509250565b600060208284031215611c1e57600080fd5b611c2782611b48565b9392505050565b634e487b7160e01b600052601160045260246000fd5b818103818111156103be576103be611c2e565b600060208284031215611c6957600080fd5b81518015158114611c2757600080fd5b634e487b7160e01b600052603260045260246000fd5b808201808211156103be576103be611c2e565b80820281158282048414176103be576103be611c2e565b600082611cd657634e487b7160e01b600052601260045260246000fd5b500490565b600060018201611ced57611ced611c2e565b5060010190565b634e487b7160e01b600052603160045260246000fd5b634e487b7160e01b600052604160045260246000fd5b60a08101611d2e8288611a17565b8560208301528460408301528360608301528260808301529695505050505050565b600081611d5f57611d5f611c2e565b50600019019056fea2646970667358221220060c73560e89e62774c6f62cb54310969c9f4035ef1456a4279736c90bc5ea9164736f6c63430008110033",
  "devdoc": {
    "kind": "dev",
    "methods": {
      "owner()": {
        "details": "Returns the address of the current owner."
      },
      "renounceOwnership()": {
        "details": "Leaves the contract without owner. It will not be possible to call `onlyOwner` functions anymore. Can only be called by the current owner. NOTE: Renouncing ownership will leave the contract without an owner, thereby removing any functionality that is only available to the owner."
      },
      "transferOwnership(address)": {
        "details": "Transfers ownership of the contract to a new account (`newOwner`). Can only be called by the current owner."
      }
    },
    "version": 1
  },
  "userdoc": {
    "kind": "user",
    "methods": {},
    "version": 1
  },
  "storageLayout": {
    "storage": [
      {
        "astId": 7,
        "contract": "contracts/Exchange.sol:Exchange",
        "label": "_owner",
        "offset": 0,
        "slot": "0",
        "type": "t_address"
      },
      {
        "astId": 236,
        "contract": "contracts/Exchange.sol:Exchange",
        "label": "tokenList",
        "offset": 0,
        "slot": "1",
        "type": "t_array(t_bytes32)dyn_storage"
      },
      {
        "astId": 250,
        "contract": "contracts/Exchange.sol:Exchange",
        "label": "s_nextOrderId",
        "offset": 0,
        "slot": "2",
        "type": "t_uint256"
      },
      {
        "astId": 252,
        "contract": "contracts/Exchange.sol:Exchange",
        "label": "s_nextTradeId",
        "offset": 0,
        "slot": "3",
        "type": "t_uint256"
      },
      {
        "astId": 278,
        "contract": "contracts/Exchange.sol:Exchange",
        "label": "s_tokens",
        "offset": 0,
        "slot": "4",
        "type": "t_mapping(t_bytes32,t_struct(Token)403_storage)"
      },
      {
        "astId": 285,
        "contract": "contracts/Exchange.sol:Exchange",
        "label": "s_orders",
        "offset": 0,
        "slot": "5",
        "type": "t_mapping(t_bytes32,t_mapping(t_uint256,t_struct(Order)421_storage))"
      },
      {
        "astId": 293,
        "contract": "contracts/Exchange.sol:Exchange",
        "label": "s_orderBook",
        "offset": 0,
        "slot": "6",
        "type": "t_mapping(t_bytes32,t_mapping(t_uint256,t_array(t_struct(Order)421_storage)dyn_storage))"
      },
      {
        "astId": 299,
        "contract": "contracts/Exchange.sol:Exchange",
        "label": "s_orderCancelled",
        "offset": 0,
        "slot": "7",
        "type": "t_mapping(t_bytes32,t_mapping(t_uint256,t_bool))"
      },
      {
        "astId": 305,
        "contract": "contracts/Exchange.sol:Exchange",
        "label": "s_traderBalances",
        "offset": 0,
        "slot": "8",
        "type": "t_mapping(t_address,t_mapping(t_bytes32,t_uint256))"
      }
    ],
    "types": {
      "t_address": {
        "encoding": "inplace",
        "label": "address",
        "numberOfBytes": "20"
      },
      "t_array(t_bytes32)dyn_storage": {
        "base": "t_bytes32",
        "encoding": "dynamic_array",
        "label": "bytes32[]",
        "numberOfBytes": "32"
      },
      "t_array(t_struct(Order)421_storage)dyn_storage": {
        "base": "t_struct(Order)421_storage",
        "encoding": "dynamic_array",
        "label": "struct Exchange.Order[]",
        "numberOfBytes": "32"
      },
      "t_bool": {
        "encoding": "inplace",
        "label": "bool",
        "numberOfBytes": "1"
      },
      "t_bytes32": {
        "encoding": "inplace",
        "label": "bytes32",
        "numberOfBytes": "32"
      },
      "t_enum(Status)398": {
        "encoding": "inplace",
        "label": "enum Exchange.Status",
        "numberOfBytes": "1"
      },
      "t_mapping(t_address,t_mapping(t_bytes32,t_uint256))": {
        "encoding": "mapping",
        "key": "t_address",
        "label": "mapping(address => mapping(bytes32 => uint256))",
        "numberOfBytes": "32",
        "value": "t_mapping(t_bytes32,t_uint256)"
      },
      "t_mapping(t_bytes32,t_mapping(t_uint256,t_array(t_struct(Order)421_storage)dyn_storage))": {
        "encoding": "mapping",
        "key": "t_bytes32",
        "label": "mapping(bytes32 => mapping(uint256 => struct Exchange.Order[]))",
        "numberOfBytes": "32",
        "value": "t_mapping(t_uint256,t_array(t_struct(Order)421_storage)dyn_storage)"
      },
      "t_mapping(t_bytes32,t_mapping(t_uint256,t_bool))": {
        "encoding": "mapping",
        "key": "t_bytes32",
        "label": "mapping(bytes32 => mapping(uint256 => bool))",
        "numberOfBytes": "32",
        "value": "t_mapping(t_uint256,t_bool)"
      },
      "t_mapping(t_bytes32,t_mapping(t_uint256,t_struct(Order)421_storage))": {
        "encoding": "mapping",
        "key": "t_bytes32",
        "label": "mapping(bytes32 => mapping(uint256 => struct Exchange.Order))",
        "numberOfBytes": "32",
        "value": "t_mapping(t_uint256,t_struct(Order)421_storage)"
      },
      "t_mapping(t_bytes32,t_struct(Token)403_storage)": {
        "encoding": "mapping",
        "key": "t_bytes32",
        "label": "mapping(bytes32 => struct Exchange.Token)",
        "numberOfBytes": "32",
        "value": "t_struct(Token)403_storage"
      },
      "t_mapping(t_bytes32,t_uint256)": {
        "encoding": "mapping",
        "key": "t_bytes32",
        "label": "mapping(bytes32 => uint256)",
        "numberOfBytes": "32",
        "value": "t_uint256"
      },
      "t_mapping(t_uint256,t_array(t_struct(Order)421_storage)dyn_storage)": {
        "encoding": "mapping",
        "key": "t_uint256",
        "label": "mapping(uint256 => struct Exchange.Order[])",
        "numberOfBytes": "32",
        "value": "t_array(t_struct(Order)421_storage)dyn_storage"
      },
      "t_mapping(t_uint256,t_bool)": {
        "encoding": "mapping",
        "key": "t_uint256",
        "label": "mapping(uint256 => bool)",
        "numberOfBytes": "32",
        "value": "t_bool"
      },
      "t_mapping(t_uint256,t_struct(Order)421_storage)": {
        "encoding": "mapping",
        "key": "t_uint256",
        "label": "mapping(uint256 => struct Exchange.Order)",
        "numberOfBytes": "32",
        "value": "t_struct(Order)421_storage"
      },
      "t_struct(Order)421_storage": {
        "encoding": "inplace",
        "label": "struct Exchange.Order",
        "members": [
          {
            "astId": 405,
            "contract": "contracts/Exchange.sol:Exchange",
            "label": "id",
            "offset": 0,
            "slot": "0",
            "type": "t_uint256"
          },
          {
            "astId": 407,
            "contract": "contracts/Exchange.sol:Exchange",
            "label": "trader",
            "offset": 0,
            "slot": "1",
            "type": "t_address"
          },
          {
            "astId": 410,
            "contract": "contracts/Exchange.sol:Exchange",
            "label": "status",
            "offset": 20,
            "slot": "1",
            "type": "t_enum(Status)398"
          },
          {
            "astId": 412,
            "contract": "contracts/Exchange.sol:Exchange",
            "label": "ticker",
            "offset": 0,
            "slot": "2",
            "type": "t_bytes32"
          },
          {
            "astId": 414,
            "contract": "contracts/Exchange.sol:Exchange",
            "label": "amount",
            "offset": 0,
            "slot": "3",
            "type": "t_uint256"
          },
          {
            "astId": 416,
            "contract": "contracts/Exchange.sol:Exchange",
            "label": "filled",
            "offset": 0,
            "slot": "4",
            "type": "t_uint256"
          },
          {
            "astId": 418,
            "contract": "contracts/Exchange.sol:Exchange",
            "label": "price",
            "offset": 0,
            "slot": "5",
            "type": "t_uint256"
          },
          {
            "astId": 420,
            "contract": "contracts/Exchange.sol:Exchange",
            "label": "date",
            "offset": 0,
            "slot": "6",
            "type": "t_uint256"
          }
        ],
        "numberOfBytes": "224"
      },
      "t_struct(Token)403_storage": {
        "encoding": "inplace",
        "label": "struct Exchange.Token",
        "members": [
          {
            "astId": 400,
            "contract": "contracts/Exchange.sol:Exchange",
            "label": "ticker",
            "offset": 0,
            "slot": "0",
            "type": "t_bytes32"
          },
          {
            "astId": 402,
            "contract": "contracts/Exchange.sol:Exchange",
            "label": "tickerAddress",
            "offset": 0,
            "slot": "1",
            "type": "t_address"
          }
        ],
        "numberOfBytes": "64"
      },
      "t_uint256": {
        "encoding": "inplace",
        "label": "uint256",
        "numberOfBytes": "32"
      }
    }
  }
}