{
  "_format": "hh-sol-artifact-1",
  "contractName": "Exchange",
  "sourceName": "contracts/Exchange.sol",
  "abi": [
    {
      "inputs": [
        {
          "internalType": "address",
          "name": "_feeAccount",
          "type": "address"
        },
        {
          "internalType": "uint256",
          "name": "_feePercent",
          "type": "uint256"
        }
      ],
      "stateMutability": "nonpayable",
      "type": "constructor"
    },
    {
      "inputs": [],
      "name": "Exchange__InvalidId",
      "type": "error"
    },
    {
      "inputs": [],
      "name": "Exchange__InvalidToken",
      "type": "error"
    },
    {
      "inputs": [],
      "name": "Exchange__LowBalance",
      "type": "error"
    },
    {
      "inputs": [],
      "name": "Exchange__LowDaiBalance",
      "type": "error"
    },
    {
      "inputs": [],
      "name": "Exchange__NotOwner",
      "type": "error"
    },
    {
      "inputs": [],
      "name": "Exchange__TokenIsNotDai",
      "type": "error"
    },
    {
      "anonymous": false,
      "inputs": [
        {
          "indexed": false,
          "internalType": "uint256",
          "name": "tradeId",
          "type": "uint256"
        },
        {
          "indexed": true,
          "internalType": "bytes32",
          "name": "ticker",
          "type": "bytes32"
        },
        {
          "indexed": true,
          "internalType": "address",
          "name": "trader1",
          "type": "address"
        },
        {
          "indexed": false,
          "internalType": "uint256",
          "name": "amount",
          "type": "uint256"
        },
        {
          "indexed": false,
          "internalType": "uint256",
          "name": "price",
          "type": "uint256"
        },
        {
          "indexed": false,
          "internalType": "uint256",
          "name": "date",
          "type": "uint256"
        }
      ],
      "name": "Cancel",
      "type": "event"
    },
    {
      "anonymous": false,
      "inputs": [
        {
          "indexed": true,
          "internalType": "bytes32",
          "name": "ticker",
          "type": "bytes32"
        },
        {
          "indexed": true,
          "internalType": "address",
          "name": "user",
          "type": "address"
        },
        {
          "indexed": false,
          "internalType": "uint256",
          "name": "amount",
          "type": "uint256"
        },
        {
          "indexed": false,
          "internalType": "uint256",
          "name": "balance",
          "type": "uint256"
        }
      ],
      "name": "Deposit",
      "type": "event"
    },
    {
      "anonymous": false,
      "inputs": [
        {
          "indexed": false,
          "internalType": "uint256",
          "name": "tradeId",
          "type": "uint256"
        },
        {
          "indexed": false,
          "internalType": "uint256",
          "name": "orderId",
          "type": "uint256"
        },
        {
          "indexed": true,
          "internalType": "bytes32",
          "name": "ticker",
          "type": "bytes32"
        },
        {
          "indexed": true,
          "internalType": "address",
          "name": "trader1",
          "type": "address"
        },
        {
          "indexed": true,
          "internalType": "address",
          "name": "trader2",
          "type": "address"
        },
        {
          "indexed": false,
          "internalType": "uint256",
          "name": "amount",
          "type": "uint256"
        },
        {
          "indexed": false,
          "internalType": "uint256",
          "name": "price",
          "type": "uint256"
        },
        {
          "indexed": false,
          "internalType": "uint256",
          "name": "date",
          "type": "uint256"
        }
      ],
      "name": "NewTrade",
      "type": "event"
    },
    {
      "anonymous": false,
      "inputs": [
        {
          "indexed": true,
          "internalType": "address",
          "name": "previousOwner",
          "type": "address"
        },
        {
          "indexed": true,
          "internalType": "address",
          "name": "newOwner",
          "type": "address"
        }
      ],
      "name": "OwnershipTransferred",
      "type": "event"
    },
    {
      "anonymous": false,
      "inputs": [
        {
          "indexed": true,
          "internalType": "bytes32",
          "name": "ticker",
          "type": "bytes32"
        },
        {
          "indexed": true,
          "internalType": "address",
          "name": "user",
          "type": "address"
        },
        {
          "indexed": false,
          "internalType": "uint256",
          "name": "amount",
          "type": "uint256"
        },
        {
          "indexed": false,
          "internalType": "uint256",
          "name": "balance",
          "type": "uint256"
        }
      ],
      "name": "Withdraw",
      "type": "event"
    },
    {
      "inputs": [
        {
          "internalType": "bytes32",
          "name": "_ticker",
          "type": "bytes32"
        },
        {
          "internalType": "address",
          "name": "_tickerAddress",
          "type": "address"
        }
      ],
      "name": "addToken",
      "outputs": [],
      "stateMutability": "nonpayable",
      "type": "function"
    },
    {
      "inputs": [
        {
          "internalType": "bytes32",
          "name": "_ticker",
          "type": "bytes32"
        },
        {
          "internalType": "uint256",
          "name": "_id",
          "type": "uint256"
        }
      ],
      "name": "cancelOrder",
      "outputs": [],
      "stateMutability": "nonpayable",
      "type": "function"
    },
    {
      "inputs": [
        {
          "internalType": "bytes32",
          "name": "_ticker",
          "type": "bytes32"
        },
        {
          "internalType": "uint256",
          "name": "_amount",
          "type": "uint256"
        },
        {
          "internalType": "uint256",
          "name": "_price",
          "type": "uint256"
        },
        {
          "internalType": "enum Exchange.Status",
          "name": "status",
          "type": "uint8"
        }
      ],
      "name": "createLimitOrder",
      "outputs": [],
      "stateMutability": "nonpayable",
      "type": "function"
    },
    {
      "inputs": [
        {
          "internalType": "bytes32",
          "name": "_ticker",
          "type": "bytes32"
        },
        {
          "internalType": "uint256",
          "name": "_amount",
          "type": "uint256"
        },
        {
          "internalType": "enum Exchange.Status",
          "name": "status",
          "type": "uint8"
        }
      ],
      "name": "createMarketOrder",
      "outputs": [],
      "stateMutability": "nonpayable",
      "type": "function"
    },
    {
      "inputs": [
        {
          "internalType": "bytes32",
          "name": "_ticker",
          "type": "bytes32"
        },
        {
          "internalType": "uint256",
          "name": "_amount",
          "type": "uint256"
        }
      ],
      "name": "depositToken",
      "outputs": [],
      "stateMutability": "nonpayable",
      "type": "function"
    },
    {
      "inputs": [
        {
          "internalType": "bytes32",
          "name": "_ticker",
          "type": "bytes32"
        }
      ],
      "name": "getBalance",
      "outputs": [
        {
          "internalType": "uint256",
          "name": "",
          "type": "uint256"
        }
      ],
      "stateMutability": "view",
      "type": "function"
    },
    {
      "inputs": [
        {
          "internalType": "bytes32",
          "name": "_ticker",
          "type": "bytes32"
        },
        {
          "internalType": "enum Exchange.Status",
          "name": "status",
          "type": "uint8"
        }
      ],
      "name": "getOrders",
      "outputs": [
        {
          "components": [
            {
              "internalType": "uint256",
              "name": "id",
              "type": "uint256"
            },
            {
              "internalType": "address",
              "name": "trader",
              "type": "address"
            },
            {
              "internalType": "enum Exchange.Status",
              "name": "status",
              "type": "uint8"
            },
            {
              "internalType": "bytes32",
              "name": "ticker",
              "type": "bytes32"
            },
            {
              "internalType": "uint256",
              "name": "amount",
              "type": "uint256"
            },
            {
              "internalType": "uint256",
              "name": "filled",
              "type": "uint256"
            },
            {
              "internalType": "uint256",
              "name": "price",
              "type": "uint256"
            },
            {
              "internalType": "uint256",
              "name": "date",
              "type": "uint256"
            }
          ],
          "internalType": "struct Exchange.Order[]",
          "name": "",
          "type": "tuple[]"
        }
      ],
      "stateMutability": "view",
      "type": "function"
    },
    {
      "inputs": [],
      "name": "getTokens",
      "outputs": [
        {
          "components": [
            {
              "internalType": "bytes32",
              "name": "ticker",
              "type": "bytes32"
            },
            {
              "internalType": "address",
              "name": "tickerAddress",
              "type": "address"
            }
          ],
          "internalType": "struct Exchange.Token[]",
          "name": "",
          "type": "tuple[]"
        }
      ],
      "stateMutability": "view",
      "type": "function"
    },
    {
      "inputs": [],
      "name": "i_feeAccount",
      "outputs": [
        {
          "internalType": "address",
          "name": "",
          "type": "address"
        }
      ],
      "stateMutability": "view",
      "type": "function"
    },
    {
      "inputs": [],
      "name": "i_feePercent",
      "outputs": [
        {
          "internalType": "uint256",
          "name": "",
          "type": "uint256"
        }
      ],
      "stateMutability": "view",
      "type": "function"
    },
    {
      "inputs": [],
      "name": "owner",
      "outputs": [
        {
          "internalType": "address",
          "name": "",
          "type": "address"
        }
      ],
      "stateMutability": "view",
      "type": "function"
    },
    {
      "inputs": [],
      "name": "renounceOwnership",
      "outputs": [],
      "stateMutability": "nonpayable",
      "type": "function"
    },
    {
      "inputs": [
        {
          "internalType": "bytes32",
          "name": "",
          "type": "bytes32"
        },
        {
          "internalType": "uint256",
          "name": "",
          "type": "uint256"
        }
      ],
      "name": "s_orderCancelled",
      "outputs": [
        {
          "internalType": "bool",
          "name": "",
          "type": "bool"
        }
      ],
      "stateMutability": "view",
      "type": "function"
    },
    {
      "inputs": [
        {
          "internalType": "bytes32",
          "name": "",
          "type": "bytes32"
        },
        {
          "internalType": "uint256",
          "name": "",
          "type": "uint256"
        }
      ],
      "name": "s_orders",
      "outputs": [
        {
          "internalType": "uint256",
          "name": "id",
          "type": "uint256"
        },
        {
          "internalType": "address",
          "name": "trader",
          "type": "address"
        },
        {
          "internalType": "enum Exchange.Status",
          "name": "status",
          "type": "uint8"
        },
        {
          "internalType": "bytes32",
          "name": "ticker",
          "type": "bytes32"
        },
        {
          "internalType": "uint256",
          "name": "amount",
          "type": "uint256"
        },
        {
          "internalType": "uint256",
          "name": "filled",
          "type": "uint256"
        },
        {
          "internalType": "uint256",
          "name": "price",
          "type": "uint256"
        },
        {
          "internalType": "uint256",
          "name": "date",
          "type": "uint256"
        }
      ],
      "stateMutability": "view",
      "type": "function"
    },
    {
      "inputs": [
        {
          "internalType": "address",
          "name": "newOwner",
          "type": "address"
        }
      ],
      "name": "transferOwnership",
      "outputs": [],
      "stateMutability": "nonpayable",
      "type": "function"
    },
    {
      "inputs": [
        {
          "internalType": "bytes32",
          "name": "_ticker",
          "type": "bytes32"
        },
        {
          "internalType": "uint256",
          "name": "_amount",
          "type": "uint256"
        }
      ],
      "name": "withdrawToken",
      "outputs": [],
      "stateMutability": "nonpayable",
      "type": "function"
    }
  ],
  "bytecode": "0x60e06040523480156200001157600080fd5b5060405162001f1c38038062001f1c8339810160408190526200003491620000aa565b6200003f336200005a565b6001600160a01b0390911660a05260c05233608052620000e6565b600080546001600160a01b038381166001600160a01b0319831681178455604051919092169283917f8be0079c531659141344cd1fd0a4f28419497f9722a3daafe3b4186f6b6457e09190a35050565b60008060408385031215620000be57600080fd5b82516001600160a01b0381168114620000d657600080fd5b6020939093015192949293505050565b60805160a05160c051611df4620001286000396000818161010a015261079801526000818161025d01528181610a930152610d13015260005050611df46000f3fe608060405234801561001057600080fd5b50600436106101005760003560e01c80639776aacf11610097578063d116c14911610066578063d116c1491461027f578063d6e1643a14610292578063d9c0c95014610310578063f2fde38b1461032357600080fd5b80639776aacf1461021d578063aa6ca80814610230578063b34b7c7f14610245578063cb8ea2811461025857600080fd5b80637d6b4982116100d35780637d6b4982146101a75780637f2c6246146101ba5780638da5cb5b146101cd5780638e739461146101f257600080fd5b80631771bd571461010557806346e9658b1461013f5780634cdd1a1c1461015f578063715018a61461019d575b600080fd5b61012c7f000000000000000000000000000000000000000000000000000000000000000081565b6040519081526020015b60405180910390f35b61015261014d366004611a0e565b610336565b6040516101369190611a72565b61018d61016d366004611b11565b600760209081526000928352604080842090915290825290205460ff1681565b6040519015158152602001610136565b6101a561044d565b005b6101a56101b5366004611b11565b610461565b6101a56101c8366004611b33565b6105e7565b6000546001600160a01b03165b6040516001600160a01b039091168152602001610136565b61012c610200366004611b68565b336000908152600860209081526040808320938352929052205490565b6101a561022b366004611b98565b610f71565b610238610ff2565b6040516101369190611bbb565b6101a5610253366004611b11565b611125565b6101da7f000000000000000000000000000000000000000000000000000000000000000081565b6101a561028d366004611b11565b6111b3565b6102fc6102a0366004611b11565b60066020818152600093845260408085209091529183529120805460018201546002830154600384015460048501546005860154959096015493956001600160a01b03841695600160a01b90940460ff16949293919290919088565b604051610136989796959493929190611c06565b6101a561031e366004611c54565b6112fb565b6101a5610331366004611c93565b6118d2565b600082815260056020526040812060609183600181111561035957610359611a3a565b8152602001908152602001600020805480602002602001604051908101604052809291908181526020016000905b82821015610440576000848152602090819020604080516101008101825260078602909201805483526001808201546001600160a01b038116958501959095529293909291840191600160a01b90910460ff16908111156103ea576103ea611a3a565b60018111156103fb576103fb611a3a565b81526020016002820154815260200160038201548152602001600482015481526020016005820154815260200160068201548152505081526020019060010190610387565b5050505090505b92915050565b610455611950565b61045f60006119aa565b565b60008281526004602052604090206001015482906001600160a01b031661049b5760405163a0089a9760e01b815260040160405180910390fd5b3360009081526008602090815260408083208684529091529020548210156104d657604051633bda205760e11b815260040160405180910390fd5b33600090815260086020908152604080832086845290915281208054849290610500908490611ccb565b909155505060008381526004602081905260409182902060010154915163a9059cbb60e01b81523391810191909152602481018490526001600160a01b039091169063a9059cbb906044016020604051808303816000875af115801561056a573d6000803e3d6000fd5b505050506040513d601f19601f8201168201806040525081019061058e9190611cde565b503360008181526008602090815260408083208784528252918290205482518681529182015285917fb66d4229fe9107b32cd9afe73d39ebf3d84f2f8c9dda72fedf450fbd02f7018191015b60405180910390a3505050565b60008381526004602052604090206001015483906001600160a01b03166106215760405163a0089a9760e01b815260040160405180910390fd5b600182600181111561063557610635611a3a565b036106755733600090815260086020908152604080832087845290915290205483111561067557604051633bda205760e11b815260040160405180910390fd5b6000848152600560205260408120818085600181111561069757610697611a3a565b146106a35760006106a6565b60015b60018111156106b7576106b7611a3a565b815260200190815260200160002090506000808590505b8254821080156106de5750600081115b15610d8d5760008383815481106106f7576106f7611d00565b90600052602060002090600702016004015484848154811061071b5761071b611d00565b9060005260206000209060070201600301546107379190611ccb565b90506000818311610748578261074a565b815b90506107568184611ccb565b92508085858154811061076b5761076b611d00565b9060005260206000209060070201600401600082825461078b9190611d16565b92505081905550600060647f00000000000000000000000000000000000000000000000000000000000000008787815481106107c9576107c9611d00565b9060005260206000209060070201600401546107e59190611d29565b6107ef9190611d40565b9050336001600160a01b031686868154811061080d5761080d611d00565b906000526020600020906007020160010160009054906101000a90046001600160a01b03166001600160a01b03168b7fdb0c486e680ba8026643e6a85f8d157b5e7bcd4b32b54d564542570a9eb204166002548a8a8154811061087257610872611d00565b906000526020600020906007020160000154878c8c8154811061089757610897611d00565b6000918252602091829020600560079092020101546040805195865291850193909352830152606082015242608082015260a00160405180910390a460018860018111156108e7576108e7611a3a565b03610ae2573360009081526008602090815260408083208d845290915281208054849290610916908490611ccb565b9250508190555085858154811061092f5761092f611d00565b9060005260206000209060070201600501548261094c9190611d29565b3360009081526008602090815260408083206244414960e81b84529091528120805490919061097c908490611d16565b9091555061098c90508183611ccb565b600860008888815481106109a2576109a2611d00565b60009182526020808320600160079093020191909101546001600160a01b0316835282810193909352604091820181208e8252909252812080549091906109ea908490611d16565b92505081905550858581548110610a0357610a03611d00565b90600052602060002090600702016005015482610a209190611d29565b60086000888881548110610a3657610a36611d00565b60009182526020808320600160079093020191909101546001600160a01b0316835282810193909352604091820181206244414960e81b825290925281208054909190610a84908490611ccb565b90915550506001600160a01b037f00000000000000000000000000000000000000000000000000000000000000001660009081526008602090815260408083208d845290915281208054839290610adc908490611d16565b90915550505b6000886001811115610af657610af6611a3a565b03610d6257858581548110610b0d57610b0d611d00565b90600052602060002090600702016005015482610b2a9190611d29565b3360009081526008602090815260408083206244414960e81b84529091529020541015610b6a5760405163403d96fd60e01b815260040160405180910390fd5b610b748183611ccb565b3360009081526008602090815260408083208e845290915281208054909190610b9e908490611d16565b92505081905550858581548110610bb757610bb7611d00565b90600052602060002090600702016005015482610bd49190611d29565b3360009081526008602090815260408083206244414960e81b845290915281208054909190610c04908490611ccb565b925050819055508160086000888881548110610c2257610c22611d00565b60009182526020808320600160079093020191909101546001600160a01b0316835282810193909352604091820181208e825290925281208054909190610c6a908490611ccb565b92505081905550858581548110610c8357610c83611d00565b90600052602060002090600702016005015482610ca09190611d29565b60086000888881548110610cb657610cb6611d00565b60009182526020808320600160079093020191909101546001600160a01b0316835282810193909352604091820181206244414960e81b825290925281208054909190610d04908490611d16565b90915550506001600160a01b037f00000000000000000000000000000000000000000000000000000000000000001660009081526008602090815260408083208d845290915281208054839290610d5c908490611d16565b90915550505b60038054906000610d7283611d62565b91905055508480610d8290611d62565b9550505050506106ce565b600091505b825482108015610de75750828281548110610daf57610daf611d00565b906000526020600020906007020160030154838381548110610dd357610dd3611d00565b906000526020600020906007020160040154145b15610f6857815b8354610dfc90600190611ccb565b811015610ef95783610e0f826001611d16565b81548110610e1f57610e1f611d00565b9060005260206000209060070201848281548110610e3f57610e3f611d00565b6000918252602090912082546007909202019081556001808301805482840180546001600160a01b031981166001600160a01b039093169283178255925460ff600160a01b91829004169491936001600160a81b03191690921791908490811115610eac57610eac611a3a565b021790555060028201548160020155600382015481600301556004820154816004015560058201548160050155600682015481600601559050508080610ef190611d62565b915050610dee565b5082805480610f0a57610f0a611d7b565b6000828152602081206007600019909301928302018181556001810180546001600160a81b03191690556002810182905560038101829055600481018290556005810182905560060155905581610f6081611d62565b925050610d92565b50505050505050565b610f79611950565b6040805180820182528381526001600160a01b039283166020808301918252600086815260049091529283209151825551600191820180546001600160a01b0319169190941617909255815480830183559190527fb10e2d527612073b26eecdfd717e6a320cf44b4afac2b0732d9fcbe2b7fa0cf60155565b60015460609060009067ffffffffffffffff81111561101357611013611d91565b60405190808252806020026020018201604052801561105857816020015b60408051808201909152600080825260208201528152602001906001900390816110315790505b50905060005b60015481101561111f576040518060400160405280600460006001858154811061108a5761108a611d00565b9060005260206000200154815260200190815260200160002060000154815260200160046000600185815481106110c3576110c3611d00565b600091825260208083209091015483528201929092526040019020600101546001600160a01b03169052825183908390811061110157611101611d00565b6020026020010181905250808061111790611d62565b91505061105e565b50919050565b6000828152600660209081526040808320848452909152902060018101546001600160a01b0316331461116b5760405163555e5e3960e11b815260040160405180910390fd5b8054821461118c5760405163063f3ac560e11b815260040160405180910390fd5b5060009182526007602090815260408084209284529190529020805460ff19166001179055565b60008281526004602052604090206001015482906001600160a01b03166111ed5760405163a0089a9760e01b815260040160405180910390fd5b6000838152600460208190526040918290206001015491516323b872dd60e01b81523391810191909152306024820152604481018490526001600160a01b03909116906323b872dd906064016020604051808303816000875af1158015611258573d6000803e3d6000fd5b505050506040513d601f19601f8201168201806040525081019061127c9190611cde565b50336000908152600860209081526040808320868452909152812080548492906112a7908490611d16565b90915550503360008181526008602090815260408083208784528252918290205482518681529182015285917f6849bd31a1772b1b6992f1f328cce6888b435faff25d13805baee12a8a944bbe91016105da565b836244414960e81b81036113225760405163781d68af60e11b815260040160405180910390fd5b60008581526004602052604090206001015485906001600160a01b031661135c5760405163a0089a9760e01b815260040160405180910390fd5b600183600181111561137057611370611a3a565b036113b45733600090815260086020908152604080832089845290915290205485106113af57604051633bda205760e11b815260040160405180910390fd5b6113f5565b3360009081526008602090815260408083206244414960e81b84529091529020548511156113f55760405163403d96fd60e01b815260040160405180910390fd5b60008681526005602052604081208185600181111561141657611416611a3a565b81526020019081526020016000209050806040518061010001604052806002548152602001336001600160a01b0316815260200186600181111561145c5761145c611a3a565b815260208082018b905260408083018b9052600060608401819052608084018b90524260a0909401939093528454600180820187559584529282902084516007909402019283559083015182850180546001600160a01b031981166001600160a01b03909316928317825592850151949593949390926001600160a81b03191690911790600160a01b9084908111156114f7576114f7611a3a565b0217905550606082015160028201556080820151600382015560a0820151600482015560c0820151600582015560e090910151600690910155805460009061154057600061154e565b815461154e90600190611ccb565b90505b80156118b357600085600181111561156b5761156b611a3a565b1480156115c9575081818154811061158557611585611d00565b906000526020600020906007020160050154826001836115a59190611ccb565b815481106115b5576115b5611d00565b906000526020600020906007020160050154115b6118b35760018560018111156115e1576115e1611a3a565b14801561163f57508181815481106115fb576115fb611d00565b9060005260206000209060070201600501548260018361161b9190611ccb565b8154811061162b5761162b611d00565b906000526020600020906007020160050154105b6118b357600082611651600184611ccb565b8154811061166157611661611d00565b60009182526020918290206040805161010081018252600793909302909101805483526001808201546001600160a01b038116958501959095529293909291840191600160a01b90910460ff16908111156116be576116be611a3a565b60018111156116cf576116cf611a3a565b815260200160028201548152602001600382015481526020016004820154815260200160058201548152602001600682015481525050905082828154811061171957611719611d00565b9060005260206000209060070201836001846117359190611ccb565b8154811061174557611745611d00565b6000918252602090912082546007909202019081556001808301805482840180546001600160a01b031981166001600160a01b039093169283178255925460ff600160a01b91829004169491936001600160a81b031916909217919084908111156117b2576117b2611a3a565b02179055506002820154816002015560038201548160030155600482015481600401556005820154816005015560068201548160060155905050808383815481106117ff576117ff611d00565b6000918252602091829020835160079092020190815590820151600180830180546001600160a01b039093166001600160a01b031984168117825560408601519391926001600160a81b03199092161790600160a01b90849081111561186757611867611a3a565b0217905550606082015160028201556080820151600382015560a0820151600482015560c0820151600582015560e090910151600690910155816118aa81611da7565b92505050611551565b600280549060006118c383611d62565b91905055505050505050505050565b6118da611950565b6001600160a01b0381166119445760405162461bcd60e51b815260206004820152602660248201527f4f776e61626c653a206e6577206f776e657220697320746865207a65726f206160448201526564647265737360d01b60648201526084015b60405180910390fd5b61194d816119aa565b50565b6000546001600160a01b0316331461045f5760405162461bcd60e51b815260206004820181905260248201527f4f776e61626c653a2063616c6c6572206973206e6f7420746865206f776e6572604482015260640161193b565b600080546001600160a01b038381166001600160a01b0319831681178455604051919092169283917f8be0079c531659141344cd1fd0a4f28419497f9722a3daafe3b4186f6b6457e09190a35050565b803560028110611a0957600080fd5b919050565b60008060408385031215611a2157600080fd5b82359150611a31602084016119fa565b90509250929050565b634e487b7160e01b600052602160045260246000fd5b60028110611a6e57634e487b7160e01b600052602160045260246000fd5b9052565b602080825282518282018190526000919060409081850190868401855b82811015611b0457815180518552868101516001600160a01b03168786015285810151611abe87870182611a50565b50606081810151908601526080808201519086015260a0808201519086015260c0808201519086015260e090810151908501526101009093019290850190600101611a8f565b5091979650505050505050565b60008060408385031215611b2457600080fd5b50508035926020909101359150565b600080600060608486031215611b4857600080fd5b8335925060208401359150611b5f604085016119fa565b90509250925092565b600060208284031215611b7a57600080fd5b5035919050565b80356001600160a01b0381168114611a0957600080fd5b60008060408385031215611bab57600080fd5b82359150611a3160208401611b81565b602080825282518282018190526000919060409081850190868401855b82811015611b04578151805185528601516001600160a01b0316868501529284019290850190600101611bd8565b8881526001600160a01b03881660208201526101008101611c2a6040830189611a50565b6060820196909652608081019490945260a084019290925260c083015260e0909101529392505050565b60008060008060808587031215611c6a57600080fd5b843593506020850135925060408501359150611c88606086016119fa565b905092959194509250565b600060208284031215611ca557600080fd5b611cae82611b81565b9392505050565b634e487b7160e01b600052601160045260246000fd5b8181038181111561044757610447611cb5565b600060208284031215611cf057600080fd5b81518015158114611cae57600080fd5b634e487b7160e01b600052603260045260246000fd5b8082018082111561044757610447611cb5565b808202811582820484141761044757610447611cb5565b600082611d5d57634e487b7160e01b600052601260045260246000fd5b500490565b600060018201611d7457611d74611cb5565b5060010190565b634e487b7160e01b600052603160045260246000fd5b634e487b7160e01b600052604160045260246000fd5b600081611db657611db6611cb5565b50600019019056fea26469706673582212206157affffc66b876d441f26e4f722737fb0d3970ea3dfc5869b01d0bbba8c47b64736f6c63430008110033",
  "linkReferences": {},
  "deployedLinkReferences": {}
}