{
  "_format": "hh-sol-artifact-1",
  "contractName": "Exchange",
  "sourceName": "contracts/Exchange.sol",
  "abi": [
    {
      "inputs": [
        {
          "internalType": "address",
          "name": "_feeAccount",
          "type": "address"
        },
        {
          "internalType": "uint256",
          "name": "_feePercent",
          "type": "uint256"
        }
      ],
      "stateMutability": "nonpayable",
      "type": "constructor"
    },
    {
      "inputs": [],
      "name": "Exchange__InvalidToken",
      "type": "error"
    },
    {
      "inputs": [],
      "name": "Exchange__LowBalance",
      "type": "error"
    },
    {
      "inputs": [],
      "name": "Exchange__LowDaiBalance",
      "type": "error"
    },
    {
      "inputs": [],
      "name": "Exchange__TokenIsNotDai",
      "type": "error"
    },
    {
      "inputs": [],
      "name": "Exchange__TransferFailed",
      "type": "error"
    },
    {
      "anonymous": false,
      "inputs": [
        {
          "indexed": true,
          "internalType": "uint256",
          "name": "tradeId",
          "type": "uint256"
        },
        {
          "indexed": true,
          "internalType": "bytes32",
          "name": "ticker",
          "type": "bytes32"
        },
        {
          "indexed": true,
          "internalType": "address",
          "name": "trader",
          "type": "address"
        },
        {
          "indexed": false,
          "internalType": "uint256",
          "name": "amount",
          "type": "uint256"
        },
        {
          "indexed": false,
          "internalType": "uint256",
          "name": "price",
          "type": "uint256"
        },
        {
          "indexed": false,
          "internalType": "uint256",
          "name": "date",
          "type": "uint256"
        }
      ],
      "name": "Cancel",
      "type": "event"
    },
    {
      "anonymous": false,
      "inputs": [
        {
          "indexed": true,
          "internalType": "bytes32",
          "name": "ticker",
          "type": "bytes32"
        },
        {
          "indexed": true,
          "internalType": "address",
          "name": "user",
          "type": "address"
        },
        {
          "indexed": false,
          "internalType": "uint256",
          "name": "amount",
          "type": "uint256"
        },
        {
          "indexed": false,
          "internalType": "uint256",
          "name": "balance",
          "type": "uint256"
        }
      ],
      "name": "Deposit",
      "type": "event"
    },
    {
      "anonymous": false,
      "inputs": [
        {
          "indexed": false,
          "internalType": "uint256",
          "name": "tradeId",
          "type": "uint256"
        },
        {
          "indexed": false,
          "internalType": "uint256",
          "name": "orderId",
          "type": "uint256"
        },
        {
          "indexed": true,
          "internalType": "bytes32",
          "name": "ticker",
          "type": "bytes32"
        },
        {
          "indexed": true,
          "internalType": "address",
          "name": "trader1",
          "type": "address"
        },
        {
          "indexed": true,
          "internalType": "address",
          "name": "trader2",
          "type": "address"
        },
        {
          "indexed": false,
          "internalType": "uint256",
          "name": "amount",
          "type": "uint256"
        },
        {
          "indexed": false,
          "internalType": "uint256",
          "name": "price",
          "type": "uint256"
        },
        {
          "indexed": false,
          "internalType": "uint256",
          "name": "date",
          "type": "uint256"
        }
      ],
      "name": "NewTrade",
      "type": "event"
    },
    {
      "anonymous": false,
      "inputs": [
        {
          "indexed": true,
          "internalType": "address",
          "name": "previousOwner",
          "type": "address"
        },
        {
          "indexed": true,
          "internalType": "address",
          "name": "newOwner",
          "type": "address"
        }
      ],
      "name": "OwnershipTransferred",
      "type": "event"
    },
    {
      "anonymous": false,
      "inputs": [
        {
          "indexed": true,
          "internalType": "bytes32",
          "name": "ticker",
          "type": "bytes32"
        },
        {
          "indexed": true,
          "internalType": "address",
          "name": "user",
          "type": "address"
        },
        {
          "indexed": false,
          "internalType": "uint256",
          "name": "amount",
          "type": "uint256"
        },
        {
          "indexed": false,
          "internalType": "uint256",
          "name": "balance",
          "type": "uint256"
        }
      ],
      "name": "Withdraw",
      "type": "event"
    },
    {
      "inputs": [
        {
          "internalType": "uint256",
          "name": "",
          "type": "uint256"
        }
      ],
      "name": "_orders",
      "outputs": [
        {
          "internalType": "uint256",
          "name": "id",
          "type": "uint256"
        },
        {
          "internalType": "address",
          "name": "trader",
          "type": "address"
        },
        {
          "internalType": "enum Exchange.Status",
          "name": "status",
          "type": "uint8"
        },
        {
          "internalType": "bytes32",
          "name": "ticker",
          "type": "bytes32"
        },
        {
          "internalType": "uint256",
          "name": "amount",
          "type": "uint256"
        },
        {
          "internalType": "uint256",
          "name": "filled",
          "type": "uint256"
        },
        {
          "internalType": "uint256",
          "name": "price",
          "type": "uint256"
        },
        {
          "internalType": "uint256",
          "name": "date",
          "type": "uint256"
        }
      ],
      "stateMutability": "view",
      "type": "function"
    },
    {
      "inputs": [
        {
          "internalType": "bytes32",
          "name": "_ticker",
          "type": "bytes32"
        },
        {
          "internalType": "address",
          "name": "_tickerAddress",
          "type": "address"
        }
      ],
      "name": "addToken",
      "outputs": [],
      "stateMutability": "nonpayable",
      "type": "function"
    },
    {
      "inputs": [
        {
          "internalType": "uint256",
          "name": "_id",
          "type": "uint256"
        }
      ],
      "name": "cancelOrder",
      "outputs": [],
      "stateMutability": "nonpayable",
      "type": "function"
    },
    {
      "inputs": [
        {
          "internalType": "bytes32",
          "name": "_ticker",
          "type": "bytes32"
        },
        {
          "internalType": "uint256",
          "name": "_amount",
          "type": "uint256"
        },
        {
          "internalType": "uint256",
          "name": "_price",
          "type": "uint256"
        },
        {
          "internalType": "enum Exchange.Status",
          "name": "status",
          "type": "uint8"
        }
      ],
      "name": "createLimitOrder",
      "outputs": [],
      "stateMutability": "nonpayable",
      "type": "function"
    },
    {
      "inputs": [
        {
          "internalType": "bytes32",
          "name": "_ticker",
          "type": "bytes32"
        },
        {
          "internalType": "uint256",
          "name": "_amount",
          "type": "uint256"
        },
        {
          "internalType": "enum Exchange.Status",
          "name": "status",
          "type": "uint8"
        }
      ],
      "name": "createMarketOrder",
      "outputs": [],
      "stateMutability": "nonpayable",
      "type": "function"
    },
    {
      "inputs": [
        {
          "internalType": "bytes32",
          "name": "_ticker",
          "type": "bytes32"
        },
        {
          "internalType": "uint256",
          "name": "_amount",
          "type": "uint256"
        }
      ],
      "name": "depositToken",
      "outputs": [],
      "stateMutability": "nonpayable",
      "type": "function"
    },
    {
      "inputs": [
        {
          "internalType": "bytes32",
          "name": "_ticker",
          "type": "bytes32"
        }
      ],
      "name": "getBalance",
      "outputs": [
        {
          "internalType": "uint256",
          "name": "",
          "type": "uint256"
        }
      ],
      "stateMutability": "view",
      "type": "function"
    },
    {
      "inputs": [
        {
          "internalType": "bytes32",
          "name": "_ticker",
          "type": "bytes32"
        },
        {
          "internalType": "enum Exchange.Status",
          "name": "status",
          "type": "uint8"
        }
      ],
      "name": "getOrders",
      "outputs": [
        {
          "components": [
            {
              "internalType": "uint256",
              "name": "id",
              "type": "uint256"
            },
            {
              "internalType": "address",
              "name": "trader",
              "type": "address"
            },
            {
              "internalType": "enum Exchange.Status",
              "name": "status",
              "type": "uint8"
            },
            {
              "internalType": "bytes32",
              "name": "ticker",
              "type": "bytes32"
            },
            {
              "internalType": "uint256",
              "name": "amount",
              "type": "uint256"
            },
            {
              "internalType": "uint256",
              "name": "filled",
              "type": "uint256"
            },
            {
              "internalType": "uint256",
              "name": "price",
              "type": "uint256"
            },
            {
              "internalType": "uint256",
              "name": "date",
              "type": "uint256"
            }
          ],
          "internalType": "struct Exchange.Order[]",
          "name": "",
          "type": "tuple[]"
        }
      ],
      "stateMutability": "view",
      "type": "function"
    },
    {
      "inputs": [],
      "name": "getTokens",
      "outputs": [
        {
          "components": [
            {
              "internalType": "bytes32",
              "name": "ticker",
              "type": "bytes32"
            },
            {
              "internalType": "address",
              "name": "tickerAddress",
              "type": "address"
            }
          ],
          "internalType": "struct Exchange.Token[]",
          "name": "",
          "type": "tuple[]"
        }
      ],
      "stateMutability": "view",
      "type": "function"
    },
    {
      "inputs": [],
      "name": "i_feeAccount",
      "outputs": [
        {
          "internalType": "address",
          "name": "",
          "type": "address"
        }
      ],
      "stateMutability": "view",
      "type": "function"
    },
    {
      "inputs": [],
      "name": "i_feePercent",
      "outputs": [
        {
          "internalType": "uint256",
          "name": "",
          "type": "uint256"
        }
      ],
      "stateMutability": "view",
      "type": "function"
    },
    {
      "inputs": [],
      "name": "owner",
      "outputs": [
        {
          "internalType": "address",
          "name": "",
          "type": "address"
        }
      ],
      "stateMutability": "view",
      "type": "function"
    },
    {
      "inputs": [],
      "name": "renounceOwnership",
      "outputs": [],
      "stateMutability": "nonpayable",
      "type": "function"
    },
    {
      "inputs": [
        {
          "internalType": "bytes32",
          "name": "",
          "type": "bytes32"
        },
        {
          "internalType": "uint256",
          "name": "",
          "type": "uint256"
        },
        {
          "internalType": "uint256",
          "name": "",
          "type": "uint256"
        }
      ],
      "name": "s_orderBook",
      "outputs": [
        {
          "internalType": "uint256",
          "name": "id",
          "type": "uint256"
        },
        {
          "internalType": "address",
          "name": "trader",
          "type": "address"
        },
        {
          "internalType": "enum Exchange.Status",
          "name": "status",
          "type": "uint8"
        },
        {
          "internalType": "bytes32",
          "name": "ticker",
          "type": "bytes32"
        },
        {
          "internalType": "uint256",
          "name": "amount",
          "type": "uint256"
        },
        {
          "internalType": "uint256",
          "name": "filled",
          "type": "uint256"
        },
        {
          "internalType": "uint256",
          "name": "price",
          "type": "uint256"
        },
        {
          "internalType": "uint256",
          "name": "date",
          "type": "uint256"
        }
      ],
      "stateMutability": "view",
      "type": "function"
    },
    {
      "inputs": [
        {
          "internalType": "uint256",
          "name": "",
          "type": "uint256"
        }
      ],
      "name": "s_orderCancelled",
      "outputs": [
        {
          "internalType": "bool",
          "name": "",
          "type": "bool"
        }
      ],
      "stateMutability": "view",
      "type": "function"
    },
    {
      "inputs": [
        {
          "internalType": "address",
          "name": "newOwner",
          "type": "address"
        }
      ],
      "name": "transferOwnership",
      "outputs": [],
      "stateMutability": "nonpayable",
      "type": "function"
    },
    {
      "inputs": [
        {
          "internalType": "bytes32",
          "name": "_ticker",
          "type": "bytes32"
        },
        {
          "internalType": "uint256",
          "name": "_amount",
          "type": "uint256"
        }
      ],
      "name": "withdrawToken",
      "outputs": [],
      "stateMutability": "nonpayable",
      "type": "function"
    }
  ],
  "bytecode": "0x60e06040523480156200001157600080fd5b5060405162002027380380620020278339810160408190526200003491620000aa565b6200003f336200005a565b6001600160a01b0390911660a05260c05233608052620000e6565b600080546001600160a01b038381166001600160a01b0319831681178455604051919092169283917f8be0079c531659141344cd1fd0a4f28419497f9722a3daafe3b4186f6b6457e09190a35050565b60008060408385031215620000be57600080fd5b82516001600160a01b0381168114620000d657600080fd5b6020939093015192949293505050565b60805160a05160c051611eff620001286000396000818161011501526108eb01526000818161026401528181610be60152610e66015260005050611eff6000f3fe608060405234801561001057600080fd5b506004361061010b5760003560e01c80638da5cb5b116100a2578063cb8ea28111610071578063cb8ea2811461025f578063d116c14914610286578063d9c0c95014610299578063f2fde38b146102ac578063f5b70e4c146102bf57600080fd5b80638da5cb5b146101e75780638e7394611461020c5780639776aacf14610237578063aa6ca8081461024a57600080fd5b8063514fcac7116100de578063514fcac7146101a4578063715018a6146101b95780637d6b4982146101c15780637f2c6246146101d457600080fd5b80631771bd571461011057806324e891611461014a57806346e9658b146101715780634e5919ef14610191575b600080fd5b6101377f000000000000000000000000000000000000000000000000000000000000000081565b6040519081526020015b60405180910390f35b61015d610158366004611ad9565b6102f2565b604051610141989796959493929190611b3d565b61018461017f366004611b9f565b61036e565b6040516101419190611bcb565b61015d61019f366004611c6a565b610485565b6101b76101b2366004611c6a565b6104ea565b005b6101b7610585565b6101b76101cf366004611c83565b610599565b6101b76101e2366004611ca5565b61073a565b6000546001600160a01b03165b6040516001600160a01b039091168152602001610141565b61013761021a366004611c6a565b336000908152600960209081526040808320938352929052205490565b6101b7610245366004611cf1565b6110c4565b610252611145565b6040516101419190611d14565b6101f47f000000000000000000000000000000000000000000000000000000000000000081565b6101b7610294366004611c83565b611278565b6101b76102a7366004611d5f565b6113da565b6101b76102ba366004611d9e565b6119b1565b6102e26102cd366004611c6a565b60086020526000908152604090205460ff1681565b6040519015158152602001610141565b6007602052826000526040600020602052816000526040600020818154811061031a57600080fd5b600091825260209091206007909102018054600182015460028301546003840154600485015460058601546006909601549498506001600160a01b0384169750600160a01b90930460ff1695509093909288565b600082815260076020526040812060609183600181111561039157610391611b05565b8152602001908152602001600020805480602002602001604051908101604052809291908181526020016000905b82821015610478576000848152602090819020604080516101008101825260078602909201805483526001808201546001600160a01b038116958501959095529293909291840191600160a01b90910460ff169081111561042257610422611b05565b600181111561043357610433611b05565b815260200160028201548152602001600382015481526020016004820154815260200160058201548152602001600682015481525050815260200190600101906103bf565b5050505090505b92915050565b600a818154811061049557600080fd5b600091825260209091206007909102018054600182015460028301546003840154600485015460058601546006909601549496506001600160a01b03841695600160a01b90940460ff16949293919290919088565b6000600a82815481106104ff576104ff611dc0565b6000918252602080832085845260088252604093849020805460ff191660011790556002600793909302019182015482546003840154600585015486519182529381019390935242948301949094529193503392907f9ebba882e8614b8fc8a47e80fee779f919c827c479ac6c9d20fd7df431a6966d9060600160405180910390a45050565b61058d611a2f565b6105976000611a89565b565b60008281526005602052604090206001015482906001600160a01b03166105d35760405163a0089a9760e01b815260040160405180910390fd5b33600090815260096020908152604080832086845290915290205482101561060e57604051633bda205760e11b815260040160405180910390fd5b33600090815260096020908152604080832086845290915281208054849290610638908490611dec565b909155505060008381526005602052604080822060010154905163a9059cbb60e01b8152336004820152602481018590526001600160a01b039091169063a9059cbb906044016020604051808303816000875af115801561069d573d6000803e3d6000fd5b505050506040513d601f19601f820116820180604052508101906106c19190611dff565b9050806106e1576040516347caa76b60e01b815260040160405180910390fd5b3360008181526009602090815260408083208884528252918290205482518781529182015286917fb66d4229fe9107b32cd9afe73d39ebf3d84f2f8c9dda72fedf450fbd02f7018191015b60405180910390a350505050565b60008381526005602052604090206001015483906001600160a01b03166107745760405163a0089a9760e01b815260040160405180910390fd5b600182600181111561078857610788611b05565b036107c8573360009081526009602090815260408083208784529091529020548311156107c857604051633bda205760e11b815260040160405180910390fd5b600084815260076020526040812081808560018111156107ea576107ea611b05565b146107f65760006107f9565b60015b600181111561080a5761080a611b05565b815260200190815260200160002090506000808590505b8254821080156108315750600081115b15610ee057600083838154811061084a5761084a611dc0565b90600052602060002090600702016004015484848154811061086e5761086e611dc0565b90600052602060002090600702016003015461088a9190611dec565b9050600081831161089b578261089d565b815b90506108a98184611dec565b9250808585815481106108be576108be611dc0565b906000526020600020906007020160040160008282546108de9190611e21565b92505081905550600060647f000000000000000000000000000000000000000000000000000000000000000087878154811061091c5761091c611dc0565b9060005260206000209060070201600401546109389190611e34565b6109429190611e4b565b9050336001600160a01b031686868154811061096057610960611dc0565b906000526020600020906007020160010160009054906101000a90046001600160a01b03166001600160a01b03168b7fdb0c486e680ba8026643e6a85f8d157b5e7bcd4b32b54d564542570a9eb204166003548a8a815481106109c5576109c5611dc0565b906000526020600020906007020160000154878c8c815481106109ea576109ea611dc0565b6000918252602091829020600560079092020101546040805195865291850193909352830152606082015242608082015260a00160405180910390a46001886001811115610a3a57610a3a611b05565b03610c35573360009081526009602090815260408083208d845290915281208054849290610a69908490611dec565b92505081905550858581548110610a8257610a82611dc0565b90600052602060002090600702016005015482610a9f9190611e34565b3360009081526009602090815260408083206244414960e81b845290915281208054909190610acf908490611e21565b90915550610adf90508183611dec565b60096000888881548110610af557610af5611dc0565b60009182526020808320600160079093020191909101546001600160a01b0316835282810193909352604091820181208e825290925281208054909190610b3d908490611e21565b92505081905550858581548110610b5657610b56611dc0565b90600052602060002090600702016005015482610b739190611e34565b60096000888881548110610b8957610b89611dc0565b60009182526020808320600160079093020191909101546001600160a01b0316835282810193909352604091820181206244414960e81b825290925281208054909190610bd7908490611dec565b90915550506001600160a01b037f00000000000000000000000000000000000000000000000000000000000000001660009081526009602090815260408083208d845290915281208054839290610c2f908490611e21565b90915550505b6000886001811115610c4957610c49611b05565b03610eb557858581548110610c6057610c60611dc0565b90600052602060002090600702016005015482610c7d9190611e34565b3360009081526009602090815260408083206244414960e81b84529091529020541015610cbd5760405163403d96fd60e01b815260040160405180910390fd5b610cc78183611dec565b3360009081526009602090815260408083208e845290915281208054909190610cf1908490611e21565b92505081905550858581548110610d0a57610d0a611dc0565b90600052602060002090600702016005015482610d279190611e34565b3360009081526009602090815260408083206244414960e81b845290915281208054909190610d57908490611dec565b925050819055508160096000888881548110610d7557610d75611dc0565b60009182526020808320600160079093020191909101546001600160a01b0316835282810193909352604091820181208e825290925281208054909190610dbd908490611dec565b92505081905550858581548110610dd657610dd6611dc0565b90600052602060002090600702016005015482610df39190611e34565b60096000888881548110610e0957610e09611dc0565b60009182526020808320600160079093020191909101546001600160a01b0316835282810193909352604091820181206244414960e81b825290925281208054909190610e57908490611e21565b90915550506001600160a01b037f00000000000000000000000000000000000000000000000000000000000000001660009081526009602090815260408083208d845290915281208054839290610eaf908490611e21565b90915550505b60048054906000610ec583611e6d565b91905055508480610ed590611e6d565b955050505050610821565b600091505b825482108015610f3a5750828281548110610f0257610f02611dc0565b906000526020600020906007020160030154838381548110610f2657610f26611dc0565b906000526020600020906007020160040154145b156110bb57815b8354610f4f90600190611dec565b81101561104c5783610f62826001611e21565b81548110610f7257610f72611dc0565b9060005260206000209060070201848281548110610f9257610f92611dc0565b6000918252602090912082546007909202019081556001808301805482840180546001600160a01b031981166001600160a01b039093169283178255925460ff600160a01b91829004169491936001600160a81b03191690921791908490811115610fff57610fff611b05565b02179055506002820154816002015560038201548160030155600482015481600401556005820154816005015560068201548160060155905050808061104490611e6d565b915050610f41565b508280548061105d5761105d611e86565b6000828152602081206007600019909301928302018181556001810180546001600160a81b031916905560028101829055600381018290556004810182905560058101829055600601559055816110b381611e6d565b925050610ee5565b50505050505050565b6110cc611a2f565b6040805180820182528381526001600160a01b039283166020808301918252600086815260059091529283209151825551600191820180546001600160a01b0319169190941617909255815480830183559190527fb10e2d527612073b26eecdfd717e6a320cf44b4afac2b0732d9fcbe2b7fa0cf60155565b60015460609060009067ffffffffffffffff81111561116657611166611e9c565b6040519080825280602002602001820160405280156111ab57816020015b60408051808201909152600080825260208201528152602001906001900390816111845790505b50905060005b60015481101561127257604051806040016040528060056000600185815481106111dd576111dd611dc0565b90600052602060002001548152602001908152602001600020600001548152602001600560006001858154811061121657611216611dc0565b600091825260208083209091015483528201929092526040019020600101546001600160a01b03169052825183908390811061125457611254611dc0565b6020026020010181905250808061126a90611e6d565b9150506111b1565b50919050565b60008281526005602052604090206001015482906001600160a01b03166112b25760405163a0089a9760e01b815260040160405180910390fd5b6000838152600560205260408082206001015490516323b872dd60e01b8152336004820152306024820152604481018590526001600160a01b03909116906323b872dd906064016020604051808303816000875af1158015611318573d6000803e3d6000fd5b505050506040513d601f19601f8201168201806040525081019061133c9190611dff565b90508061135c576040516347caa76b60e01b815260040160405180910390fd5b33600090815260096020908152604080832087845290915281208054859290611386908490611e21565b90915550503360008181526009602090815260408083208884528252918290205482518781529182015286917f6849bd31a1772b1b6992f1f328cce6888b435faff25d13805baee12a8a944bbe910161072c565b836244414960e81b81036114015760405163781d68af60e11b815260040160405180910390fd5b60008581526005602052604090206001015485906001600160a01b031661143b5760405163a0089a9760e01b815260040160405180910390fd5b600183600181111561144f5761144f611b05565b0361149357336000908152600960209081526040808320898452909152902054851061148e57604051633bda205760e11b815260040160405180910390fd5b6114d4565b3360009081526009602090815260408083206244414960e81b84529091529020548511156114d45760405163403d96fd60e01b815260040160405180910390fd5b6000868152600760205260408120818560018111156114f5576114f5611b05565b81526020019081526020016000209050806040518061010001604052806003548152602001336001600160a01b0316815260200186600181111561153b5761153b611b05565b815260208082018b905260408083018b9052600060608401819052608084018b90524260a0909401939093528454600180820187559584529282902084516007909402019283559083015182850180546001600160a01b031981166001600160a01b03909316928317825592850151949593949390926001600160a81b03191690911790600160a01b9084908111156115d6576115d6611b05565b0217905550606082015160028201556080820151600382015560a0820151600482015560c0820151600582015560e090910151600690910155805460009061161f57600061162d565b815461162d90600190611dec565b90505b801561199257600085600181111561164a5761164a611b05565b1480156116a8575081818154811061166457611664611dc0565b906000526020600020906007020160050154826001836116849190611dec565b8154811061169457611694611dc0565b906000526020600020906007020160050154115b6119925760018560018111156116c0576116c0611b05565b14801561171e57508181815481106116da576116da611dc0565b906000526020600020906007020160050154826001836116fa9190611dec565b8154811061170a5761170a611dc0565b906000526020600020906007020160050154105b61199257600082611730600184611dec565b8154811061174057611740611dc0565b60009182526020918290206040805161010081018252600793909302909101805483526001808201546001600160a01b038116958501959095529293909291840191600160a01b90910460ff169081111561179d5761179d611b05565b60018111156117ae576117ae611b05565b81526020016002820154815260200160038201548152602001600482015481526020016005820154815260200160068201548152505090508282815481106117f8576117f8611dc0565b9060005260206000209060070201836001846118149190611dec565b8154811061182457611824611dc0565b6000918252602090912082546007909202019081556001808301805482840180546001600160a01b031981166001600160a01b039093169283178255925460ff600160a01b91829004169491936001600160a81b0319169092179190849081111561189157611891611b05565b02179055506002820154816002015560038201548160030155600482015481600401556005820154816005015560068201548160060155905050808383815481106118de576118de611dc0565b6000918252602091829020835160079092020190815590820151600180830180546001600160a01b039093166001600160a01b031984168117825560408601519391926001600160a81b03199092161790600160a01b90849081111561194657611946611b05565b0217905550606082015160028201556080820151600382015560a0820151600482015560c0820151600582015560e0909101516006909101558161198981611eb2565b92505050611630565b600380549060006119a283611e6d565b91905055505050505050505050565b6119b9611a2f565b6001600160a01b038116611a235760405162461bcd60e51b815260206004820152602660248201527f4f776e61626c653a206e6577206f776e657220697320746865207a65726f206160448201526564647265737360d01b60648201526084015b60405180910390fd5b611a2c81611a89565b50565b6000546001600160a01b031633146105975760405162461bcd60e51b815260206004820181905260248201527f4f776e61626c653a2063616c6c6572206973206e6f7420746865206f776e65726044820152606401611a1a565b600080546001600160a01b038381166001600160a01b0319831681178455604051919092169283917f8be0079c531659141344cd1fd0a4f28419497f9722a3daafe3b4186f6b6457e09190a35050565b600080600060608486031215611aee57600080fd5b505081359360208301359350604090920135919050565b634e487b7160e01b600052602160045260246000fd5b60028110611b3957634e487b7160e01b600052602160045260246000fd5b9052565b8881526001600160a01b03881660208201526101008101611b616040830189611b1b565b6060820196909652608081019490945260a084019290925260c083015260e0909101529392505050565b803560028110611b9a57600080fd5b919050565b60008060408385031215611bb257600080fd5b82359150611bc260208401611b8b565b90509250929050565b602080825282518282018190526000919060409081850190868401855b82811015611c5d57815180518552868101516001600160a01b03168786015285810151611c1787870182611b1b565b50606081810151908601526080808201519086015260a0808201519086015260c0808201519086015260e090810151908501526101009093019290850190600101611be8565b5091979650505050505050565b600060208284031215611c7c57600080fd5b5035919050565b60008060408385031215611c9657600080fd5b50508035926020909101359150565b600080600060608486031215611cba57600080fd5b8335925060208401359150611cd160408501611b8b565b90509250925092565b80356001600160a01b0381168114611b9a57600080fd5b60008060408385031215611d0457600080fd5b82359150611bc260208401611cda565b602080825282518282018190526000919060409081850190868401855b82811015611c5d578151805185528601516001600160a01b0316868501529284019290850190600101611d31565b60008060008060808587031215611d7557600080fd5b843593506020850135925060408501359150611d9360608601611b8b565b905092959194509250565b600060208284031215611db057600080fd5b611db982611cda565b9392505050565b634e487b7160e01b600052603260045260246000fd5b634e487b7160e01b600052601160045260246000fd5b8181038181111561047f5761047f611dd6565b600060208284031215611e1157600080fd5b81518015158114611db957600080fd5b8082018082111561047f5761047f611dd6565b808202811582820484141761047f5761047f611dd6565b600082611e6857634e487b7160e01b600052601260045260246000fd5b500490565b600060018201611e7f57611e7f611dd6565b5060010190565b634e487b7160e01b600052603160045260246000fd5b634e487b7160e01b600052604160045260246000fd5b600081611ec157611ec1611dd6565b50600019019056fea2646970667358221220c77a802f4303604a71d5120e554e8e9cbc76393e115ae11ae6fa939d73877c5464736f6c63430008110033",
  "linkReferences": {},
  "deployedLinkReferences": {}
}